:100AA20075985075D7E075D6FE758E14438E01EF9A
:100AB2006009E5A2543F4480F5A222E5A2543FF525
:020AC200A2226E
:03002300020AC40A
:100AC400C0D0309809C298859980A29A92A2309990
:080AD40004C299C200D0D03227
:090BBA002000FDEFD200F59922A4
:100A7D008B088A09890AAB08AA09A90A1208F66027
:100A8D0013050AE50A7002050914F91208F6FF129A
:050A9D000BBA80E2220B
:070B9900D291120BA0D290D3
:050BA00000000000222E
:0A0BB000D290120BA0D291020BA00C
:0D0B7F00120B99C291120BA0C290020BA0A4
:0F0B7000C291120B9BD291120BA0C290C2912284
:1009D300E4FEEFA806088002C333D8FC30E704D254
:1009E300918002C291120B9BC290120BA00EBE0803
:0E09F300E1120BA0120B99A291E433C290FF07
:010A010022D2
:100A2F00E4FEC290120BA0D291FD120B9B309104E9
:100A3F007F018002E4FFEE25E04FFEC2900DBD085E
:060A4F00E9120BA0AF0646
:010A5500227E
:10099B00120B7F7F901209D3E4FF1209D3120B7F46
:1009AB007F911209D3120A2FAC07120A2FAD07122F
:1009BB000B70EC4203EBFAEFFBEBAE027804CEA22A
:0709CB00E713CE13D8F8FF7B
:0109D2002202
:100B3800AE071FEE600DE4FCFD0DED70010C4C607E
:030B4800EF80F645
:010B4B002287
:0D0B8C00E4F5C7F5C5F5C675C380F5C422B4
:100AF40075C78275C5018FC48EC375C65A75C6A5E0
:060B040000AFC2120B8CD1
:010B0A0022C8
:100B220075C78275C5028FC48EC38DC275C65A75CC
:060B3200C6A500020B8CB9
:100B4C0075C78275C5038FC48EC375C65A75C6A585
:040B5C0000020B8CFC
:100B0B00AB077F007E04120B4C7F0A120B38AD0330
:070B1B007F007E04020B22A3
:070BC3007F007E04120AF41A
:010BCA002208
:100ADC00000000000000000000000000000000000A
:080AEC00000000000000000002
:040BCB00020B001AFF
:100B60007592B4E4F59175B213F5B1F5B0C2922265
:0A0BA50000007F027E0FDEFEDFFC81
:010BAF002223
:040A0200AD07AC068A
:100A0600E4F582F583C3E5829DEC6480F8E58364B2
:100A160080985014E4FAFB120BA50BBB00010AEBFD
:080A2600640A4A70F2A380DDAE
:010A2E0022A5
:100A5600E4F521F522F523F524F525F52678277CFE
:100A660000FD7BFF7A0A79DCFE7F181208D0120B94
:070A760060D294D2B480FEAF
:0300000002090FE3
:0C090F00787FE4F6D8FD75813E020956A1
:10080000E709F608DFFA8046E709F208DFFA803EDA
:1008100088828C83E709F0A3DFFA8032E309F608C7
:10082000DFFA8078E309F208DFFA807088828C832F
:10083000E309F0A3DFFA806489828A83E0A3F608E3
:10084000DFFA805889828A83E0A3F208DFFA804CBD
:1008500080D280FA80C680D4806980F28033801094
:1008600080A680EA809A80A880DA80E280CA8033FD
:1008700089828A83ECFAE493A3C8C582C8CCC58375
:10088000CCF0A3C8C582C8CCC583CCDFE9DEE78045
:100890000D89828A83E493A3F608DFF9ECFAA9F0C4
:1008A000EDFB2289828A83ECFAE0A3C8C582C8CC1A
:1008B000C583CCF0A3C8C582C8CCC583CCDFEADE33
:1008C000E880DB89828A83E493A3F208DFF980CC95
:1008D00088F0EF60010E4E60C388F0ED2402B4048E
:1008E0000050B9F582EB2402B4040050AF23234535
:0608F00082239008507302
:1008F600BB010689828A83E0225002E722BBFE0200
:09090600E32289828A83E4932232
:10091B00020A56E493A3F8E493A34003F68001F292
:10092B0008DFF48029E493A3F85407240CC8C333DD
:10093B00C4540F4420C8834004F456800146F6DFAC
:10094B00E4800B0102040810204080900BCBE47E66
:10095B00019360BCA3FF543F30E509541FFEE493A1
:10096B00A360010ECF54C025E060A840B8E493A368
:10097B00FAE493A3F8E493A3C8C582C8CAC583CA93
:10098B00F0A3C8C582C8CAC583CADFE9DEE780BE4B
:010BCF000025
:00000001FF
